{
  "address": "0x5FbDB2315678afecb367f032d93F642f64180aa3",
  "abi": [
    {
      "inputs": [
        {
          "internalType": "uint256",
          "name": "u1",
          "type": "uint256"
        },
        {
          "internalType": "address",
          "name": "a1",
          "type": "address"
        },
        {
          "internalType": "string",
          "name": "s1",
          "type": "string"
        }
      ],
      "stateMutability": "nonpayable",
      "type": "constructor"
    },
    {
      "inputs": [
        {
          "internalType": "uint256",
          "name": "added",
          "type": "uint256"
        }
      ],
      "name": "thisIsNonPayableFunction",
      "outputs": [],
      "stateMutability": "nonpayable",
      "type": "function"
    },
    {
      "inputs": [],
      "name": "thisIsPayableFunction",
      "outputs": [],
      "stateMutability": "payable",
      "type": "function"
    },
    {
      "inputs": [],
      "name": "thisIsPureFunction",
      "outputs": [
        {
          "internalType": "uint256",
          "name": "",
          "type": "uint256"
        }
      ],
      "stateMutability": "pure",
      "type": "function"
    },
    {
      "inputs": [
        {
          "internalType": "uint256",
          "name": "mul",
          "type": "uint256"
        }
      ],
      "name": "thisIsViewFunction",
      "outputs": [
        {
          "internalType": "uint256",
          "name": "",
          "type": "uint256"
        }
      ],
      "stateMutability": "view",
      "type": "function"
    }
  ],
  "transactionHash": "0x13f07e1bbb4806686a0f2375279a158c7eb9ae6c9bf534bb07379720ce1eb18d",
  "args": [
    123,
    "0x5FbDB2315678afecb367f032d93F642f64180aa3",
    "Hello"
  ],
  "numDeployments": 1,
  "solcInputHash": "65a3c1f3920163a29c42d06720f4d7eb",
  "bytecode": "0x608060405234801561001057600080fd5b506040516106cd3803806106cd833981810160405281019061003291906101ce565b8260008190555081600160006101000a81548173ffffffffffffffffffffffffffffffffffffffff021916908373ffffffffffffffffffffffffffffffffffffffff1602179055508060029080519060200190610090929190610099565b505050506103c3565b8280546100a590610305565b90600052602060002090601f0160209004810192826100c7576000855561010e565b82601f106100e057805160ff191683800117855561010e565b8280016001018555821561010e579182015b8281111561010d5782518255916020019190600101906100f2565b5b50905061011b919061011f565b5090565b5b80821115610138576000816000905550600101610120565b5090565b600061014f61014a84610266565b610235565b90508281526020810184848401111561016757600080fd5b6101728482856102d2565b509392505050565b60008151905061018981610395565b92915050565b600082601f8301126101a057600080fd5b81516101b084826020860161013c565b91505092915050565b6000815190506101c8816103ac565b92915050565b6000806000606084860312156101e357600080fd5b60006101f1868287016101b9565b93505060206102028682870161017a565b925050604084015167ffffffffffffffff81111561021f57600080fd5b61022b8682870161018f565b9150509250925092565b6000604051905081810181811067ffffffffffffffff8211171561025c5761025b610366565b5b8060405250919050565b600067ffffffffffffffff82111561028157610280610366565b5b601f19601f8301169050602081019050919050565b60006102a1826102a8565b9050919050565b600073ffffffffffffffffffffffffffffffffffffffff82169050919050565b6000819050919050565b60005b838110156102f05780820151818401526020810190506102d5565b838111156102ff576000848401525b50505050565b6000600282049050600182168061031d57607f821691505b6020821081141561033157610330610337565b5b50919050565b7f4e487b7100000000000000000000000000000000000000000000000000000000600052602260045260246000fd5b7f4e487b7100000000000000000000000000000000000000000000000000000000600052604160045260246000fd5b61039e81610296565b81146103a957600080fd5b50565b6103b5816102c8565b81146103c057600080fd5b50565b6102fb806103d26000396000f3fe60806040526004361061003f5760003560e01c806344fb0003146100445780636662397b1461004e578063c08d933a14610079578063cd5f0c83146100a2575b600080fd5b61004c6100df565b005b34801561005a57600080fd5b50610063610122565b60405161007091906101aa565b60405180910390f35b34801561008557600080fd5b506100a0600480360381019061009b9190610172565b61012b565b005b3480156100ae57600080fd5b506100c960048036038101906100c49190610172565b610146565b6040516100d691906101aa565b60405180910390f35b33600160006101000a81548173ffffffffffffffffffffffffffffffffffffffff021916908373ffffffffffffffffffffffffffffffffffffffff160217905550565b60006064905090565b8060008082825461013c91906101c5565b9250508190555050565b600081600054610156919061021b565b9050919050565b60008135905061016c816102ae565b92915050565b60006020828403121561018457600080fd5b60006101928482850161015d565b91505092915050565b6101a481610275565b82525050565b60006020820190506101bf600083018461019b565b92915050565b60006101d082610275565b91506101db83610275565b9250827fffffffffffffffffffffffffffffffffffffffffffffffffffffffffffffffff038211156102105761020f61027f565b5b828201905092915050565b600061022682610275565b915061023183610275565b9250817fffffffffffffffffffffffffffffffffffffffffffffffffffffffffffffffff048311821515161561026a5761026961027f565b5b828202905092915050565b6000819050919050565b7f4e487b7100000000000000000000000000000000000000000000000000000000600052601160045260246000fd5b6102b781610275565b81146102c257600080fd5b5056fea2646970667358221220e607f4a25d5eb4ad37c96ce8723ab2c5187a9567f9c990c681a374d75809368064736f6c63430008000033",
  "devdoc": {
    "kind": "dev",
    "methods": {},
    "version": 1
  },
  "userdoc": {
    "kind": "user",
    "methods": {},
    "version": 1
  },
  "storageLayout": {
    "storage": [
      {
        "astId": 4,
        "contract": "contracts/Test1.sol:Test1",
        "label": "u_init",
        "offset": 0,
        "slot": "0",
        "type": "t_uint256"
      },
      {
        "astId": 6,
        "contract": "contracts/Test1.sol:Test1",
        "label": "payer",
        "offset": 0,
        "slot": "1",
        "type": "t_address"
      },
      {
        "astId": 8,
        "contract": "contracts/Test1.sol:Test1",
        "label": "s_init",
        "offset": 0,
        "slot": "2",
        "type": "t_string_storage"
      }
    ],
    "types": {
      "t_address": {
        "encoding": "inplace",
        "label": "address",
        "numberOfBytes": "20"
      },
      "t_string_storage": {
        "encoding": "bytes",
        "label": "string",
        "numberOfBytes": "32"
      },
      "t_uint256": {
        "encoding": "inplace",
        "label": "uint256",
        "numberOfBytes": "32"
      }
    }
  }
}